:060000000A128A11FC2F18
:100D0A00831203138C1E8A2E8B2E852E8C121A08A0
:100D1A000800F000831203130C1E942E952E8F2EBA
:100D2A000C1270089900080080308316031387009C
:100D3A0083120313870183160313181318129816C4
:100D4A0083120313981718164030AA000030AB001C
:100D5A000030AC000030AD002608AE002708AF0016
:100D6A002808B0002908B10006300310AE0DAF0DF7
:100D7A00B00DB10DFF3E031DBA2E2E08AA072F088B
:100D8A0003182F0FC92ECA2EAB0730080318300FCD
:100D9A00CF2ED02EAC0731080318310AAD072D0823
:100DAA00F3002C08F2002B08F1002A08F0000130A9
:100DBA00F7003130F6002D30F5000030F4000A1249
:100DCA008A1163270A128A1170088316031399007D
:100DDA00080083120313B201B301B401B501B601CD
:100DEA00B7010030A9000030A8002530A7008030E4
:100DFA00A6000A128A1199260A128A110A128A115F
:100E0A0085260A128A1183120313B80038080A12B7
:100E1A008A118E260A128A110A308312031338069F
:100E2A00031D182F192F1A2F422F44303806031D7D
:100E3A001F2F202F272F0130B2070318B30A0030C3
:100E4A00B307032F45303806031D2C2F2D2F342FBF
:100E5A000130B4070318B50A0030B507032F46302E
:100E6A003806031D392F3A2F412F0130B6070318D0
:100E7A00B70A0030B707032F032F23300A128A114B
:100E8A008E260A128A118312031332080A128A1151
:100E9A008E260A128A118312031334080A128A113F
:100EAA008E260A128A118312031336080A128A112D
:100EBA008E260A128A110A128A1100288312031333
:100ECA00A101F31F692F6A2F772FF009F109F2099F
:100EDA00F309F00A0319F10A0319F20A0319F30ACA
:100EEA000130A100F71F7A2F7B2F882FF409F5090B
:100EFA00F609F709F40A0319F50A0319F60A031998
:100F0A00F70A0130A1060030A5000030A400003025
:100F1A00A3000030A200730872047104700403195C
:100F2A00972F982FE32F0130A000A62F0130F80049
:100F3A000310F00DF10DF20DF30DF80B9D2F01309A
:100F4A00A007F31FA92FAA2F9B2F0130F800031027
:100F5A00A20DA30DA40DA50DF80BAC2F73087702F3
:100F6A00031DC12F72087602031DC12F7108750275
:100F7A00031DC12F70087402031CC42FC52FD42F60
:100F8A007008F4027108031C710FF5027208031C41
:100F9A00720FF6027308031C730FF7022214013052
:100FAA000310F30CF20CF10CF00CFF3E031DD52FCD
:100FBA000130A002031DE22FE32FAA2F21080319F3
:100FCA00E72FE82FF32FA209A309A409A509A20A6A
:100FDA000319A30A0319A40A0319A50A2508F30089
:100FEA002408F2002308F1002208F0000800830117
:060FFA000A128A11EE2E1E
:02400E003A3F37
:00000001FF
