:060000000A128A11FC2F18
:100AC600831203138C1E682D692D632D8C121A0850
:100AD6000800F000831203130C1E722D732D6D2D6A
:100AE6000C1270089900080083120313A2003D300F
:100AF600FA002008303EFB002108FC0022080A12FA
:100B06008A1194250A128A112030FA002030FB003F
:100B16002030FC0020300A128A1194250A128A110C
:100B26000800FD007D08F00020300A128A110B260D
:100B36000A128A117A08F00021300A128A110B264D
:100B46000A128A117B08F00022300A128A110B263B
:100B56000A128A117C08F00023300A128A110B2629
:100B66000A128A1108008030831603138700831245
:100B7600031387018316031318131812981683128A
:100B86000313981718164030AA000030AB00003047
:100B9600AC000030AD002608AE002708AF002808DC
:100BA600B0002908B10006300310AE0DAF0DB00D30
:100BB600B10DFF3E031DD72D2E08AA072F080318D7
:100BC6002F0FE62DE72DAB0730080318300FEC2D5D
:100BD600ED2DAC0731080318310AAD072D08F300D7
:100BE6002C08F2002B08F1002A08F0000130F7006B
:100BF6003130F6002D30F5000030F4000A128A116B
:100C0600A0260A128A117008831603139900080099
:100C1600F5007008F100F2017508F300F40173089D
:100C2600F400F30171087304F60072087404F70007
:100C36008312031386140230F3004530F200A93004
:100C4600F100F10B242EF20B242EF30B242E2B2E67
:100C56008312031386100230F3004530F200A930E8
:100C6600F100F10B342EF20B342EF30B342E3B2E07
:100C7600F801F901F71F402E412E452E831203136A
:100C86000614482E8312031306100230F300453073
:100C9600F200A930F100F10B4E2EF20B4E2EF30BA3
:100CA6004E2E552E8312031306150230F3004530DF
:100CB600F200A930F100F10B5E2EF20B5E2EF30B63
:100CC6005E2E652E8312031306110230F3004530A3
:100CD600F200A930F100F10B6E2EF20B6E2EF30B23
:100CE6006E2E752E01300310F60DF70DFF3E031D17
:100CF600762E0130F8070318F90A0030F90779084B
:100D0600803AFF0080307F02031D8B2E1030780260
:100D1600031C8E2E8F2E3D2E831203138614023053
:100D2600F3004530F200A930F100F10B982EF20BDA
:100D3600982EF30B982E9F2E080083120313A10101
:100D4600F31FA62EA72EB42EF009F109F209F30916
:100D5600F00A0319F10A0319F20A0319F30A01301A
:100D6600A100F71FB72EB82EC52EF409F509F6090E
:100D7600F709F40A0319F50A0319F60A0319F70A1B
:100D86000130A1060030A5000030A4000030A30009
:100D96000030A20073087204710470040319D42E83
:100DA600D52E202F0130A000E32E0130F8000310CD
:100DB600F00DF10DF20DF30DF80BDA2E0130A00750
:100DC600F31FE62EE72ED82E0130F8000310A20DF1
:100DD600A30DA40DA50DF80BE92E73087702031DCC
:100DE600FE2E72087602031DFE2E71087502031D83
:100DF600FE2E70087402031C012F022F112F70089B
:100E0600F4027108031C710FF5027208031C720FBD
:100E1600F6027308031C730FF70222140130031045
:100E2600F30CF20CF10CF00CFF3E031D122F0130F7
:100E3600A002031D1F2F202FE72E21080319242FA0
:100E4600252F302FA209A309A409A509A20A03196F
:100E5600A30A0319A40A0319A50A2508F3002408FE
:100E6600F2002308F1002208F0000800831603139D
:100E760086018312031386018130F00004300A12C2
:100E86008A110B260A128A11FF30F00001300A126D
:100E96008A110B260A128A11FF30F00002300A125C
:100EA6008A110B260A128A11F00107300A128A11DA
:100EB6000B260A128A11003083120313A900003090
:100EC600A8002530A7008030A6000A128A11B62590
:100ED6000A128A1183120313B501B601912F8830C5
:100EE6003607FF001230350784000318FF0A0A127E
:100EF6008A1500200A128A110A128A116C250A1212
:100F06008A110A128A1163250A128A110130831284
:100F16000313B5070318B60A0030B607883036073C
:100F2600FF001230350784000318FF0A0A128A15DB
:100F360000200A128A11003A031DA22FA32F722F36
:100F46000A128A1163250A128A1183120313B40046
:100F560023303406031DB02FB12FA32FB501B601E0
:100F66000A128A1163250A128A1183120313B40026
:100F76003508323E84003408831380000130B507FB
:100F86000318B60A0030B6073608803AFF008030EC
:100F96007F02031DD02F03303502031CD32FD42F1D
:100FA600B32F831203133208A0002C30A100443063
:100FB6000A128A1177250A128A118312031333083B
:100FC600A0002C30A10045300A128A1177250A129A
:100FD6008A11831203133408A0002E30A100463074
:100FE6000A128A1177250A128A11A32F0A128A1168
:100FF600002883010A128A11392FFF1B0A2883133E
:101006007F1883170008840A0319FF0A08007F085F
:101016007F398A000408840A0319FF0A82005434BF
:101026006834653420344D344134583436343934D8
:101036003534323420346934733420346134203406
:1010460063346F346D3470346134633474342034F3
:10105600733465347234693461346C3420346934E1
:101066006E347034753474342F346F34753474348C
:1010760070347534743420346434693473347034A1
:101086006C3461347934203464347234693476349F
:1010960065347234203464346534733469346734A7
:1010A6006E3465346434203474346F3420346934D7
:1010B6006E34743465347234663461346334653442
:1010C60020346D346934633472346F3463346F346E
:1010D6006E34743472346F346C346C3465347234F8
:1010E6007334203477346934743468342034643487
:1010F6006F3474342D346D3461347434723469341D
:10110600783420344C3445344434203464346934DF
:10111600733470346C346134793473342E3420343F
:10112600543468346934733420346334683469342D
:101136007034203473347534703470346F347234D0
:101146007434733420345334503449342034613485
:101156006E346434203476346134723469346F34D6
:101166007534733420346F347434683465347234AF
:101176002034733465347234693461346C34203409
:1011860063346F346D346D3475346E34693463345E
:101196006134743469346F346E342034703472348C
:1011A6006F3474346F3463346F346C3473342C346A
:1011B6002034723465347134753469347234693468
:1011C6006E34673420346F346E346C3479342034A2
:1011D60074346834723465346534203463346F345F
:1011E6006E34743472346F346C3420346C34693435
:1011F6006E34653473342034663472346F346D342F
:10120600203479346F347534723420346D34693453
:10121600633472346F3463346F346E3474347234BE
:101226006F346C346C3465347234203474346F34F7
:101236002034653466346634653463347434693412
:10124600763465346C3479342034643472346934D9
:101256007634653420347434683465342034643428
:101266006934733470346C34613479342E340A340E
:02127600003442
:02400E003A3F37
:00000001FF
